:020000040000FA
:100000000C9462000C948A000C948A000C948A0070
:100010000C948A000C948A000C948A000C948A0038
:100020000C948A000C948A000C948A000C948A0028
:100030000C948A000C948A000C948A000C948A0018
:100040000C947A040C948A000C9448040C942204B6
:100050000C948A000C948A000C948A000C948A00F8
:100060000C948A000C948A000000000024002700F1
:100070002A0000000000250028002B0000000008D6
:10008000000201000003040700000000000000005F
:1000900000000000230026002900040404040404D6
:1000A0000404020202020202030303030303010227
:1000B00004081020408001020408102001020408F6
:1000C0001020090511241FBECFEFD8E0DEBFCDBF41
:1000D00011E0A0E0B1E0ECEEFDE002C005900D9271
:1000E000AE34B107D9F722E0AEE4B1E001C01D9211
:1000F000AC30B207E1F710E0C2E6D0E004C02197CF
:10010000FE010E94EE06C136D107C9F70E945305D1
:100110000C94F4060C940000AF92BF92CF92DF9241
:10012000EF92FF920F931F93CF93DF936C017B01AC
:100130008B01040F151FEB015E01AE18BF08C0173D
:10014000D10759F06991D601ED91FC910190F081B0
:10015000E02DC6010995892B79F7C501DF91CF9173
:100160001F910F91FF90EF90DF90CF90BF90AF90D5
:100170000895FC01538D448D252F30E0842F90E0AD
:10018000821B930B541710F0CF9608950197089592
:10019000FC01918D828D981761F0A28DAE0FBF2F5B
:1001A000B11D5D968C91928D9F5F9F73928F90E0B1
:1001B00008958FEF9FEF0895FC01918D828D981720
:1001C00031F0828DE80FF11D858D90E008958FEF5D
:1001D0009FEF0895FC01918D228D892F90E0805C26
:1001E0009F4F821B91098F739927089587E591E0AE
:1001F0000E94EA0021E0892B09F420E0822F089573
:1002000080E090E0892B29F00E94F60081110C9487
:1002100000000895FC01A48DA80FB92FB11DA35AA9
:10022000BF4F2C91848D90E001968F739927848F16
:10023000A689B7892C93A089B1898C918370806439
:100240008C93938D848D981306C00288F389E02DDA
:1002500080818F7D80830895EF92FF920F931F938B
:10026000CF93DF93EC0181E0888F9B8D8C8D981369
:100270001AC0E889F989808185FF15C09FB7F89475
:10028000EE89FF896083E889F989808183708064C1
:1002900080839FBF81E090E0DF91CF911F910F910C
:1002A000FF90EF900895F62E0B8D10E00F5F1F4F1B
:1002B0000F731127E02E8C8D8E110CC00FB607FC2A
:1002C000FACFE889F989808185FFF5CFCE010E94B8
:1002D0000A01F1CFEB8DEC0FFD2FF11DE35AFF4F1B
:1002E000F0829FB7F8940B8FEA89FB898081806246
:1002F000CFCFCF93DF93EC01888D8823B9F0AA8903
:10030000BB89E889F9898C9185FD03C0808186FDD0
:100310000DC00FB607FCF7CF8C9185FFF2CF80811F
:1003200085FFEDCFCE010E940A01E9CFDF91CF9189
:10033000089590E0FC01E458FF4F2491FC01E25540
:10034000FF4F3491FC01E656FF4FE491EE23C9F0D4
:10035000222339F0233001F1A8F4213019F12230A1
:1003600029F1F0E0EE0FFF1FEE58FF4FA591B49179
:100370008FB7F894EC91611126C030953E233C93E1
:100380008FBF08952730A9F02830C9F0243049F7ED
:10039000809180008F7D03C0809180008F77809353
:1003A0008000DFCF84B58F7784BDDBCF84B58F7DB0
:1003B000FBCF8091B0008F778093B000D2CF809137
:1003C000B0008F7DF9CF3E2BDACFCF93DF9390E053
:1003D000FC01E255FF4F249186569F4FFC0184910A
:1003E0008823D1F090E0880F991FFC01E859FF4F56
:1003F000A591B491FC01EE58FF4FC591D4916111C4
:100400000EC09FB7F8948C91E22FE0958E238C93C9
:100410002881E223E8839FBFDF91CF9108958FB7B2
:10042000F894EC91E22BEC938FBFF6CF3FB7F894A2
:100430008091530190915401A0915501B0915601C2
:1004400026B5A89B05C02F3F19F00196A11DB11D2F
:100450003FBFBA2FA92F982F8827BC01CD01620F6B
:10046000711D811D911D42E0660F771F881F991F26
:100470004A95D1F708958F929F92AF92BF92CF92F3
:10048000DF92EF92FF924B015C010E9416026B011A
:100490007C010E9416026C197D098E099F09683E35
:1004A000734081059105A8F321E0821A9108A10803
:1004B000B10888EEC80E83E0D81EE11CF11C81143F
:1004C0009104A104B10429F7FF90EF90DF90CF9041
:1004D000BF90AF909F908F900895089590E080E036
:1004E0000895CF93DF93EC0160E08E810E94990123
:1004F00061E08E810E94990160E08E810E949901E5
:100500008BE891E00197F1F7DF91CF910895CF92B9
:10051000DF92EF92FF920F931F93CF93DF936C01C3
:100520007C0187E0E80EF11CD0E0C0E0062F10E06F
:10053000B8010C2E02C0759567950A94E2F76170B8
:10054000F70181917F010E9499012196C430D10564
:1005500079F7C601DF91CF911F910F91FF90EF9036
:10056000DF90CF900C947102CF92DF92EF92FF92C6
:100570000F931F93CF93DF93EC01F62E642F8C81A2
:100580000E9499018D818F3F19F060E00E949901CE
:100590000F2D10E08F8584FF25C06E0187E0C80E07
:1005A000D11CF12CE12CB8010E2C02C07595679579
:1005B0000A94E2F76170F60181916F010E9499013E
:1005C000FFEFEF1AFF0A88E0E816F10461F7CE01A9
:1005D000DF91CF911F910F91FF90EF90DF90CF901F
:1005E0000C947102B80184E0759567958A95E1F7DE
:1005F000CE010E9487026F2DCE01DF91CF911F9116
:100600000F91FF90EF90DF90CF900C94870240E025
:10061000682F84EF91E00C94B402CF93DF93823083
:1006200029F490910302986090930302809307024B
:100630001092080280E48093090280E180930A020C
:1006400080E580930B0261E08091F8010E94E50152
:100650008091F9018F3F19F061E00E94E50161E0AE
:100660008091FA010E94E501C4EFD1E09E01245F70
:1006700031408091030284FD0BC084E090E021961C
:100680002817390744F461E08E810E94E501EECF1E
:1006900088E090E0F4CF8BE39DE00197F1F760E014
:1006A0008091F8010E94990160E08091FA010E9416
:1006B00099018091F9018F3F19F060E00E94990142
:1006C0008091030284FD39C063E084EF91E00E94D1
:1006D0008702CBE4D6E4CE010197F1F763E084EF23
:1006E00091E00E9487022197F1F763E084EF91E0A7
:1006F0000E94870283E592E00197F1F762E084EFC0
:1007000091E00E9487028091030280620E940703A9
:1007100084E0809304028CE00E94070381E00E9441
:1007200007038BE39FE10197F1F782E080930502D5
:1007300086E0DF91CF910C94070380620E9407034B
:100740008BE496E40197F1F78091030280620E94A6
:10075000070383E592E00197F1F78091030280623D
:100760000E940703D0CF90910702891710F08FEFF6
:10077000890FE82FF0E0EC50FE4F848980680C94DC
:10078000070341E00E94B40281E090E00895FB017C
:1007900001900020E9F73197AF01461B570BDC01B0
:1007A000ED91FC910280F381E02D09948F929F924C
:1007B000AF92BF92EF92FF920F931F93CF93DF936D
:1007C000CDB7DEB7A1970FB6F894DEBF0FBECDBF91
:1007D0007C01FA01CB0119A2223008F42AE08E0133
:1007E0000F5D1F4F822E912CB12CA12CBF01A501B2
:1007F00094010E94AD06F901CA016A300CF5605DF2
:10080000D8016E938D01232B242B252B79F790E0B3
:1008100080E0109721F0BD01C7010E94C703A19697
:100820000FB6F894DEBF0FBECDBFDF91CF911F9101
:100830000F91FF90EF90BF90AF909F908F90089591
:10084000695CDECF1F920F920FB60F9211242F9387
:100850003F934F935F936F937F938F939F93AF9348
:10086000BF93EF93FF9387E591E00E940A01FF9108
:10087000EF91BF91AF919F918F917F916F915F9118
:100880004F913F912F910F900FBE0F901F90189591
:100890001F920F920FB60F9211242F938F939F9355
:1008A000EF93FF93E0916701F09168018081E091FF
:1008B0006D01F0916E0182FD1BC0908180917001ED
:1008C0008F5F8F7320917101821741F0E091700169
:1008D000F0E0E95AFE4F958F80937001FF91EF9100
:1008E0009F918F912F910F900FBE0F901F90189591
:1008F0008081F4CF1F920F920FB60F9211242F9385
:100900003F938F939F93AF93BF9380914F019091AB
:100910005001A0915101B091520130914E0123E05C
:10092000230F2D3758F50196A11DB11D20934E01BF
:1009300080934F0190935001A0935101B0935201C5
:100940008091530190915401A0915501B0915601AD
:100950000196A11DB11D8093530190935401A09362
:100960005501B0935601BF91AF919F918F913F91E7
:100970002F910F900FBE0F901F90189526E8230F10
:100980000296A11DB11DD2CFCF92DF92EF92FF92BE
:100990000F931F93E82FF92F05C00150110921096A
:1009A000310961F1908196239417B9F305C0015084
:1009B00011092109310911F1908196239413F7CF80
:1009C000C12CD12CE12CF12C0AC08FEFC81AD80A07
:1009D000E80AF80A0C151D052E053F0579F08081FF
:1009E0008623841791F36C2D7D2D8E2D9F2D1F91C5
:1009F0000F91FF90EF90DF90CF90089560E070E04E
:100A000080E090E01F910F91FF90EF90DF90CF90EA
:100A10000895E7E5F1E01382128288EE93E0A0E00A
:100A2000B0E084839583A683B78384E091E09183CB
:100A3000808385EC90E09587848784EC90E09787AD
:100A4000868780EC90E0918B808B81EC90E0938B9B
:100A5000828B82EC90E0958B848B86EC90E0978B78
:100A6000868B118E128E138E148EE4EFF1E01382BA
:100A7000128286E191E09183808382E084838FEF0C
:100A8000858383E0868384E0878385E0808786E0B2
:100A9000818787E0828713861486158616861786D7
:100AA00081E00C940D03789484B5826084BD84B594
:100AB000816084BD85B5826085BD85B5816085BD59
:100AC00080916E00816080936E0010928100809111
:100AD0008100826080938100809181008160809399
:100AE0008100809180008160809380008091B100BE
:100AF00084608093B1008091B00081608093B000E9
:100B000080917A00846080937A0080917A0082607C
:100B100080937A0080917A00816080937A0080913E
:100B20007A00806880937A001092C100E09167019A
:100B3000F091680182E08083E0916301F0916401AB
:100B40001082E0916501F09166018FEC8083109234
:100B50006F01E0916B01F0916C0186E08083E09180
:100B60006901F0916A01808180618083E09169016F
:100B7000F0916A01808188608083E0916901F09141
:100B80006A01808180688083E0916901F0916A0147
:100B900080818F7D808382E00E940D0361E08CE084
:100BA0000E94E50160E08BE00E94E50180E00E9488
:100BB000B3036EE171E084EF91E00E94C7036EE140
:100BC00071E087E591E00E94C70381E00E94B303D2
:100BD0006DE271E084EF91E00E94C7036DE271E085
:100BE00087E591E00E94C70368EE73E080E090E043
:100BF0000E943B0281E00E9407038BE39FE1019783
:100C0000F1F7C3E0D0E093E2A92EB12C25EA222E21
:100C100020E0322E3AE3432E512C612C712C40E01F
:100C2000842E40E0942E61E08CE00E94E50160E0BB
:100C30008CE00E949901CE010197F1F761E08CE010
:100C40000E949901C5010197F1F760E08CE00E94D4
:100C5000990160E08BE00E94E501E9EBF0E064912E
:100C6000F1018491E82FF0E0EE0FFF1FE057FF4FF6
:100C70008591949100E412E42FE030E0462F0E9429
:100C8000C4046B017C01C114D104E104F10439F006
:100C9000FFEFCF1ADF0AEF0AFF0A8FE0F8226DE3B9
:100CA00071E087E591E00E94C703C701B601A30187
:100CB00092010E94CF0669017A012AE0BA01A601D9
:100CC00087E591E00E94D60367E471E087E591E053
:100CD0000E94C70364E670E080E090E00E943B025F
:100CE0006AE471E087E591E00E94C70380E00E941A
:100CF000B3036CE471E084EF91E00E94C7036AE003
:100D000070E080E090E00E943B0281E00E94B3032B
:100D10006DE371E084EF91E00E94C7032AE0B70120
:100D2000A60184EF91E00E94D60367E471E084EFAE
:100D300091E00E94C70364E670E080E090E00E94CA
:100D40003B028114910409F46ECF0E94F6008823BF
:100D500009F469CF0E94000066CFA1E21A2EAA1BF7
:100D6000BB1BFD010DC0AA1FBB1FEE1FFF1FA2175B
:100D7000B307E407F50720F0A21BB30BE40BF50B58
:100D8000661F771F881F991F1A9469F760957095E1
:100D9000809590959B01AC01BD01CF010895052E72
:100DA00097FB1EF400940E94E60657FD07D00E94B0
:100DB000AD0607FC03D04EF40C94E6065095409522
:100DC000309521953F4F4F4F5F4F089590958095F7
:100DD000709561957F4F8F4F9F4F0895EE0FFF1FC6
:100DE0000590F491E02D0994F894FFCF00000000E5
:100DF0002C018C00B9007901EA00C800DC00000079
:100E00000000C1038C006E026D02202044697374DF
:100E1000616E6365202020200020204D6561737580
:100E200072656D656E7420200044697374616E6331
:0A0E3000653A00636D000D0A000032
:107E0000112484B714BE81FFF0D085E080938100F7
:107E100082E08093C00088E18093C10086E0809377
:107E2000C20080E18093C4008EE0C9D0259A86E02C
:107E300020E33CEF91E0309385002093840096BBD3
:107E4000B09BFECF1D9AA8958150A9F7CC24DD24C4
:107E500088248394B5E0AB2EA1E19A2EF3E0BF2EE7
:107E6000A2D0813461F49FD0082FAFD0023811F036
:107E7000013811F484E001C083E08DD089C08234E0
:107E800011F484E103C0853419F485E0A6D080C0E4
:107E9000853579F488D0E82EFF2485D0082F10E0AE
:107EA000102F00270E291F29000F111F8ED06801E7
:107EB0006FC0863521F484E090D080E0DECF843638
:107EC00009F040C070D06FD0082F6DD080E0C81688
:107ED00080E7D80618F4F601B7BEE895C0E0D1E017
:107EE00062D089930C17E1F7F0E0CF16F0E7DF06D8
:107EF00018F0F601B7BEE89568D007B600FCFDCFD4
:107F0000A601A0E0B1E02C9130E011968C91119780
:107F100090E0982F8827822B932B1296FA010C0160
:107F200087BEE89511244E5F5F4FF1E0A038BF0790
:107F300051F7F601A7BEE89507B600FCFDCF97BE46
:107F4000E89526C08437B1F42ED02DD0F82E2BD052
:107F50003CD0F601EF2C8F010F5F1F4F84911BD097
:107F6000EA94F801C1F70894C11CD11CFA94CF0C13
:107F7000D11C0EC0853739F428D08EE10CD085E9AC
:107F80000AD08FE07ACF813511F488E018D01DD067
:107F900080E101D065CF982F8091C00085FFFCCF94
:107FA0009093C60008958091C00087FFFCCF809118
:107FB000C00084FD01C0A8958091C6000895E0E648
:107FC000F0E098E1908380830895EDDF803219F02E
:107FD00088E0F5DFFFCF84E1DECF1F93182FE3DFCA
:107FE0001150E9F7F2DF1F91089580E0E8DFEE27F6
:047FF000FF270994CA
:027FFE00040479
:00000001FF
